:020000040000FA
:060000000A128A1110280B
:10000800FE00030E83120313E5000A08E6007F08CA
:10001800E7000A168A15AB2E0A128A1113280A124B
:100028008A1533200A128A11EC000A128A15342024
:100038000A128A11ED000A128A1535200A128A114D
:10004800EE0083160317BF01C001C101C201C3013D
:10005800C401C501C601C701C801C901CA0183128B
:100068000313E801E901EA01EB01EF0183010A1634
:100078008A114A2A831603136B08803983160317DB
:10008800900010089800831603136B088316031753
:1000980090001007910011089A0083160313EA1FB5
:1000A800562857285A28831603171A148316031735
:1000B8001A0803196028612874281A0A031D65287C
:1000C80066287028003083160313EB000030EA001E
:1000D8000030E9000030E8000313EA17EB017E283E
:1000E800003083160313EB000030EA000030E9000B
:1000F8000030E8006F088039831603179000100855
:1001080099001908180603198A288B288C281817AB
:10011800831603136F0883160317900010079100C6
:100128001108990083160313EE1F9B289C289F280B
:100138008316031719148316031719080319A5281A
:10014800A628B928190A031DAA28AB28B528003003
:1001580083160313EF000030EE000030ED0000308E
:10016800EC000313EE17EF01C328003083160313C6
:10017800EF000030EE000030ED000030EC00831698
:1001880003171A0819020318CA28CB284129181F6F
:10019800CE28CF28D32880309000100898061A0857
:1001A800900010089B001908900010089A001B087E
:1001B8009000100899008316031368088316031724
:1001C800900010089B00831603136C08831603170E
:1001D8009000100883160313E800831603171B0802
:1001E8009000100883160313EC00690883160317A0
:1001F800900010089B00831603136D0883160317DD
:100208009000100883160313E900831603171B08D0
:100218009000100883160313ED006A08831603176D
:10022800900010089B00831603136E0883160317AB
:100238009000100883160313EA00831603171B089F
:100248009000100883160313EE006B08831603173B
:10025800900010089B00831603136F08831603177A
:100268009000100883160313EB00831603171B086E
:100278009000100883160313EF00831603179B01E1
:10028800190890009101110893001A0810029200B1
:10029800031C93031308803AFF0080307F02031D7C
:1002A80057291A301202031C5A295B29A8298316D8
:1002B80003136B086A0469046804031D642966292A
:1002C80001306729003083160317900010089B003F
:1002D800003083160313EB000030EA000030E90019
:1002E8000030E800831603171908900010089A00D8
:1002F800B0291B1C802981298A291B08900003101A
:10030800100C0138910011089B008C2903109B0CDC
:1003180083160313681C91299229952983160317BC
:100328009B170130831603179000831603136B0D78
:10033800EB0CEA0CE90CE80C83160317900B9929CF
:100348000130900010089A078316031719081A023B
:10035800031CAF29B0297D29181BB329B4290F2AFA
:100368001A08031DB829B929C429003083160313B4
:10037800EB000030EA000030E9000030E800C12B53
:10038800831603136C08E8076D0803110318013E70
:100398000319CF29E9076E0803110318013E031951
:1003A800D629EA076F0803110318013E0319DD294E
:1003B800EB076B1CE029E1290D2B831603171B1C87
:1003C800E629E729F0291B0890000310100C0138D2
:1003D800910011089B00F22903109B0C831603134C
:1003E800681CF729F829FB29831603179B17013086
:1003F800831603179000831603136B0DEB0CEA0C9E
:10040800E90CE80C83160317900BFF2901309000C4
:1004180010089A070D2B831603136B08803AFF0008
:100428006F08803A7F02031D232A6E086A02031DA3
:10043800232A6D086902031D232A6C086802031821
:10044800262A272AB72AFF30831603179000FF3081
:100458009100FF309200FF309300831603136C085D
:10046800831603179400831603136D088316031766
:100478009500831603136E088316031796008316D8
:1004880003136F088316031797008316031368086E
:10049800831603179402831603136908031C690F54
:1004A800562A592A831603179502831603136A08D6
:1004B800031C6A0F602A632A8316031796028316A1
:1004C80003136B08031C6B0F6A2A6D2A8316031724
:1004D8009702831603138316031714089007150849
:1004E8000318150F782A792A910716080318160F8A
:1004F8007E2A7F2A920717080318170A93071308FA
:1005080083160313EB0083160317120883160313CD
:10051800EA0083160317110883160313E9008316EC
:100528000317100883160313E80080308316031797
:100538009000100898069B099B0A1B08031DA52A12
:10054800A62AC52A013083160313E80700300318CA
:100558000130E907003003180130EA0700300318BA
:100568000130EB07C52A6C08E8026D08031C6D0F03
:10057800E9026E08031C6E0FEA026F08031C6F0F76
:10058800EB0203136B086A0469046804031DCD2A8F
:10059800CE2A082B831603171B08031DD42AD52A35
:1005A800082B003083160313EB000030EA000030FC
:1005B800E9000030E800C12B0130831603179000D2
:1005C800031083160313E80DE90DEA0DEB0D8316EE
:1005D8000317900BE42A9B1FF22AF32AF62A8316A4
:1005E80003136814831603171B1CFB2AFC2AFF2A13
:1005F80003149B0D012B03109B0D1A080319052BDF
:10060800062B082B01309A020313EA1F0C2B0D2B23
:10061800E02A8316031799019B1F132B142B262BF3
:100628001B087F390319192B1A2B1F2B8316031745
:100638009901990A262B83160313681C242B252B52
:10064800262B1A2B83160317190803192C2B2D2B6D
:10065800812B013083160313E8070030031801309B
:10066800E907003003180130EA07003003180130A9
:10067800EB076B1C402B412B812B68088316031753
:1006880090008316031369088316031791008316D5
:1006980003136A08831603179200831603136B0863
:1006A80083160317930001309400130D930C920CDA
:1006B800910C900C940B592B130883160313EB0021
:1006C80083160317120883160313EA008316031709
:1006D800110883160313E9008316031710088316FD
:1006E8000313E800831603171A0A03197C2B7D2BC2
:1006F800812B0130900010089A07831603171A0AF5
:100708000319872B882B8D2B1A08031D8C2B8D2BF7
:100718009F2B003083160313EB000030EA000030F3
:10072800E9000030E800831603171A08031D9D2B03
:100738009E2B9F2B98011A1CA22BA32BA72B831649
:100748000313EA17AD2B7F309000100883160313AC
:10075800EA05831603171A0890000310100C91007D
:10076800110883160313EB0083160317981FBD2B7C
:10077800BE2BC12B83160313EB1708008316031334
:1007880051088039D6005608DB005108D6005607B4
:10079800D7005708E100D01FD22BD32BD42B6114DC
:1007A80061080319D82BD92BE82B610A031DDD2B0F
:1007B800DE2BE62B0030D1000030D0000030CF0017
:1007C8000030CE00D017F02B0030D1000030D00020
:1007D8000030CF000030CE0055088039D6005608CA
:1007E800DB065508D6005607D7005708E000D41F87
:1007F800FE2BFF2B002C601460080319042C052C19
:10080800142C600A031D092C0A2C122C0030D50068
:100818000030D4000030D3000030D200D4171C2C94
:100828000030D5000030D4000030D3000030D200B2
:1008380060080319202C212C262C6108031D252C67
:10084800262C2F2C0030D1000030D0000030CF00F3
:100858000030CE00222F4E08D6005608A0005408BB
:100868000A168A151F250A128A11831603132108EE
:10087800E7002008E6006608D600D701D801D901AC
:100888005908DF005808DE005708DD005608DC006C
:100898006708D600D701D801D9015908E5005808DA
:1008A800E4005708E3005608E2004F08D60056084F
:1008B800A00053080A168A151F250A128A118316E2
:1008C80003132108E7002008E6006608D600D701D0
:1008D800D801D9015608DC07570803110318013E4F
:1008E8000319772CDD07580803110318013E031973
:1008F8007E2CDE07590803110318013E0319852CC5
:10090800DF076708D600D701D801D9015608E207E2
:10091800570803110318013E0319932CE3075808DD
:1009280003110318013E03199A2CE407590803110F
:100938000318013E0319A12CE5075008D6005608F4
:10094800A00052080A168A151F250A128A11831652
:1009580003132108E7002008E6006608D600D7013F
:10096800D801D9015608DC07570803110318013EBE
:100978000319BF2CDD07580803110318013E03199A
:10098800C62CDE07590803110318013E0319CD2CA4
:10099800DF076708D600D701D801D9015608E20752
:1009A800570803110318013E0319DB2CE307580805
:1009B80003110318013E0319E22CE4075908031137
:1009C8000318013E0319E92CE5070830D600031087
:1009D800DC0DDD0DDE0DDF0DD60BEB2C4F08D60040
:1009E8005608A00052080A168A151F250A128A11ED
:1009F800831603132108E7002008E6006608D600DE
:100A08006708D700D801D9015608DC075708031131
:100A18000318013E0319112DDD07580803110318A7
:100A2800013E0319182DDE07590803110318013E6A
:100A380003191F2DDF074E08D6005608A0005308DB
:100A48000A168A151F250A128A118316031321080C
:100A5800E7002008E6006608D6006708D700D80136
:100A6800D9015608DC07570803110318013E03197A
:100A78003E2DDD07580803110318013E0319452DC3
:100A8800DE07590803110318013E03194C2DDF072F
:100A98000830D6000310DC0DDD0DDE0DDF0DD60BA2
:100AA8004E2D4E08D6005608A00052080A168A1580
:100AB8001F250A128A11831603132108E70020084C
:100AC800E6006608D6006708D700D801D90156089D
:100AD800DC07570803110318013E0319742DDD07BD
:100AE800580803110318013E03197B2DDE07590826
:100AF80003110318013E0319822DDF074F08D600A2
:100B08005608A00054080A168A151F250A128A11C9
:100B1800831603132108E7002008E6006608D600BC
:100B28006708D700D801D9015608E207570803110A
:100B38000318013E0319A12DE307580803110318F0
:100B4800013E0319A82DE407590803110318013EB3
:100B58000319AF2DE5075008D6005608A000530822
:100B68000A168A151F250A128A11831603132108EB
:100B7800E7002008E6006608D6006708D700D80115
:100B8800D9015608E207570803110318013E031953
:100B9800CE2DE307580803110318013E0319D52D7C
:100BA800E407590803110318013E0319DC2DE50772
:100BB8005008D6005608A00054080A168A151F25A2
:100BC8000A128A11831603132108E7002008E60099
:100BD8006608D6006708D700D801D9010830031085
:100BE800D60DD70DD80DD90DFF3E031DF32D560890
:100BF800E207570803110318013E0319042EE307FF
:100C0800580803110318013E03190B2EE40759086D
:100C180003110318013E0319122EE5075C08D600DC
:100C28005D08D7005E08D8005F08D90018300310A7
:100C3800D90CD80CD70CD60CFF3E031D1B2E56081A
:100C4800E207570803110318013E03192C2EE30786
:100C5800580803110318013E0319332EE4075908F5
:100C680003110318013E03193A2EE5070830D60090
:100C78000310DC0DDD0DDE0DDF0DD60B3C2E6108FB
:100C88006007D600D701D70D5608823EE600570800
:100C98000318013EFF3EE7006E2E0130D600031018
:100CA800E20DE30DE40DE50DD60B532EDF1F5D2E8F
:100CB8005E2E5F2E62140130D6000310DC0DDD0DB0
:100CC800DE0DDF0DD60B612EFF30E6070318E70AAD
:100CD800FF30E707E41F712E722E512EE001DF1F4F
:100CE800762E772E932EFF305C05D600FF305D05FB
:100CF800D700FF305E05D8007F305F05D90059085E
:100D080058045704560403198A2E8B2E8E2EE001A0
:100D1800E00A932E621C912E922E932E8B2E600841
:100D28000319972E982EC92E0130E20700300318B8
:100D38000130E307003003180130E40700300318DE
:100D48000130E507651CA92EAA2EC92E6208D60017
:100D58006308D7006408D8006508D9000130DA00B4
:100D6800590DD90CD80CD70CD60CDA0BB42E59085F
:100D7800E5005808E4005708E3005608E20001308F
:100D8800E6070318E70A0030E7076708803AFF001C
:100D980080307F02031DD22EFF306602031CD52E41
:100DA800D62EE12E7F3083160313E5008030E40051
:100DB8000030E3000030E200162F831603136708A3
:100DC800803AFF0080307F02031DEC2E013066025E
:100DD8000318EF2EF02EFC2E003083160313E500C7
:100DE8000030E4000030E3000030E200DB01162FA1
:100DF800831603136608D6005608E100FF30E205A3
:100E0800FF30E3057F30E4050030E505611C0D2F58
:100E18000E2F0F2FE4176108D6000310560CD700C9
:100E28005708E5005B08D6005608E5046508D100B8
:100E38006408D0006308CF006208CE00080083165B
:100E48000313AE002E0803192A2F2B2F3F2FA91F9B
:100E58002E2F2F2F3F2F2609B0002709B100280970
:100E6800B2002909B300B00A0319B10A0319B20A7A
:100E78000319B30A472F2908B3002808B200270826
:100E8800B1002608B0002908280427042604031DF9
:100E98004E2F4F2F582F0030A9000030A8000030E7
:100EA800A7000030A600DE2F9630AA002A08AF005F
:100EB8006A2F0130AA002A08AF0701300310B30CCB
:100EC800B20CB10CB00CFF3E031D622FFE3033058F
:100ED800031D6F2F702F5D2F8C2F0130AA002A0859
:100EE800AF070130B007003003180130B1070030F8
:100EF80003180130B207003003180130B30701307E
:100F08000310B30CB20CB10CB00CFF3E031D842FC0
:100F1800FF303305031D912F922F712F9E2F013023
:100F2800AF020130AA000310B00DB10DB20DB30D20
:100F3800AA0B972FB21BA12FA22FA82F02302F0286
:100F48000318A72FA82F932F2F18AB2FAC2FB42F30
:100F5800FF30B005FF30B1057F30B205FF30B30573
:100F68000310AF0C2F08AA00AB01AC01AD0118307B
:100F78000310AA0DAB0DAC0DAD0DFF3E031DBC2F2C
:100F88002A08B0042B08B1042C08B2042D08B304B5
:100F98002E080319D02FD12FD62FA91FD42FD52F24
:100FA800D62FB3173308A9003208A8003108A700C4
:100FB8003008A600080083160313A3002308A20024
:100FC80004300310A20CFF3E031DE52F22080A1669
:100FD8008A1505260A128A118316031323080A168E
:100FE8008A1505260A128A11413083160313A200B6
:100FF800A20BFC2FFF2F0800FF1B0A2883137F1862
:1010080083170008840A0319FF0A080008308A00B9
:101018000408840A82070034013400340A34003496
:1010280064340034E83403341034273450345734EB
:101038004D3431343A340034503457344D3432342A
:101048003A34003420345B346D346D345D3400340C
:101058005B3425345D340034253464340034013481
:1010680068346A34831203130515080083160313C2
:101078003B088039BC003C08C5003B08BC003C0765
:10108800BD003D08CC00BA1F4A284B284C284C14F8
:101098004C0803195028512861284C0A031D55286B
:1010A80056285E280030BB000030BA000030B90076
:1010B8000030B800BA17BB0169280030BB00003007
:1010C800BA000030B9000030B80037088039BC00D9
:1010D8003C08C5063708BC003C07BD003D08CD00EC
:1010E800B61F7728782879284D144D0803197D28CC
:1010F8007E288E284D0A031D822883288B280030DD
:10110800B7000030B6000030B5000030B400B617A4
:10111800B70196280030B7000030B6000030B5009F
:101128000030B4003708360435043404031D9D2804
:101138009E28B7280030BB000030BA000030B90044
:101148000030B8008030BA047F30BB044508BC00CA
:101158003C08BB043B08B7003A08B6003908B5009C
:101168003808B400162A4C08031DBB28BC28C5281B
:101178000030B7000030B6000030B5000030B400D1
:10118800162A4C08BC00BD013D08BF004D083C02B2
:10119800BE00031CBF033E087F3EC6003F0803187D
:1011A800013E003EC7003B08C4003A08C3003908A6
:1011B800C2003808C1000030BB000030BA0000305F
:1011C800B9000030B8000030CB000030CA00003051
:1011D800C9000030C800CD013B294D080319F52886
:1011E800F62816290130BC000310C10DC20DC30D2D
:1011F800C40DBC0BF8280130BC000310B80DB90DA4
:10120800BA0DBB0DBC0B0129CB1F0B290C290D29CD
:1012180038140130BC000310C80DC90DCA0DCB0D20
:10122800BC0B0F2937084402031D24293608430242
:10123800031D242935084202031D242934084102CC
:10124800031C2729282937294B173408C1023508D8
:10125800031C350FC2023608031C360FC3023708B9
:10126800031C370FC4020130BC003C08CD071A30FC
:101278004D02031C40294129F12844084304420433
:101288004104031948294929682948146829013063
:10129800BC000310B80DB90DBA0DBB0DBC0B4D2920
:1012A800CB1F57295829592938140130BC0003107D
:1012B800C80DC90DCA0DCB0DBC0B5B29FF30C60785
:1012C8000318C70AFF30C707BA1F6B296C294B29B7
:1012D800CD01CB1F702971298D29FF304805BC002D
:1012E800FF304905BD00FF304A05BE007F304B0581
:1012F800BF003F083E043D043C04031984298529A6
:101308008829CD01CD0A8D29381C8B298C298D2956
:1013180085294D08031991299229C3290130B80755
:10132800003003180130B907003003180130BA073C
:10133800003003180130BB073B1CA329A429C3298B
:101348003808BC003908BD003A08BE003B08BF0099
:101358000130C0003F0DBF0CBE0CBD0CBC0CC00B57
:10136800AE293F08BB003E08BA003D08B9003C085A
:10137800B8000130C6070318C70A0030C707470876
:10138800803AFF0080307F02031DCC29FF304602DF
:10139800031CCF29D029DE29FF3083160313C6008A
:1013A8000030C7000030BB000030BA000030B90080
:1013B8000030B800831603134708803AFF008030D6
:1013C8007F02031DE929013046020318EC29ED29A3
:1013D800FA2983160313C601C7010030BB00003089
:1013E800BA000030B9000030B800C50183160313F5
:1013F8004608BC003C08CC004C1C032A042A062AD8
:10140800BA170A2A7F30BC003C08BA054C08BC0051
:1014180003103C0CBD003D08BB004508BC003C085F
:10142800BB04AE280800831203133D088039C200AC
:101438004208CA003D08C2004207C3004308CC0066
:10144800BC1F272A282A292A4C144C0803192D2A9C
:101458002E2A3E2A4C0A031D322A332A3B2A003000
:10146800BD000030BC000030BB000030BA00BC1723
:10147800BD01462A0030BD000030BC000030BB0072
:101488000030BA0041088039C2004208CB004B083E
:101498004A060319502A512A522A4A174108C200FB
:1014A8004207C3004308CB00C01F5B2A5C2A5D2AA1
:1014B8004B144B080319612A622A722A4B0A031D2E
:1014C800662A672A6F2A0030C1000030C000003049
:1014D800BF000030BE00C017C1017A2A0030C10029
:1014E8000030C0000030BF000030BE004C084B0286
:1014F80003187F2A802AC42A4A1F832A842A882A12
:101508008030C2004208CA064C08C2004208CD001A
:101518004B08C2004208CC004D08C2004208CB006C
:101528003A08C2004208CD003E08C2004208BA008C
:101538004D08C2004208BE003B08C2004208CD0068
:101548003F08C2004208BB004D08C2004208BF0065
:101558003C08C2004208CD004008C2004208BC0056
:101568004D08C2004208C0003D08C2004208CD0034
:101578004108C2004208BD004D08C2004208C1002F
:10158800CD014B08C200C3014308C5004C08420204
:10159800C400031CC5034508803AFF0080307F0261
:1015A800031DD82A1A304402031CDB2ADC2A192B13
:1015B800831203133D083C043B043A04031DE52A47
:1015C800E72A0130E82A0030C2004208CD00003086
:1015D800BD000030BC000030BB000030BA004B0832
:1015E800C2004208CC00212B4D1CFB2AFC2A052BEB
:1015F8004D08C2000310420C0138C3004308CD0057
:10160800072B0310CD0C3A1C0A2B0B2B0C2BCD17D8
:101618000130C2003D0DBD0CBC0CBB0CBA0CC20B9A
:101628000E2B0130C2004208CC07831203134B086B
:101638004C02031C202B212BF82A4A1B242B252B78
:10164800702B4C08031D292B2A2B332B0030BD008F
:101658000030BC000030BB000030BA009E2C3E08B1
:10166800BA073F0803110318013E03193C2BBB07B7
:10167800400803110318013E0319432BBC07410816
:1016880003110318013E03194A2BBD073D1C4D2BBE
:101698004E2B242C4D1C512B522B5B2B4D08C2007A
:1016A8000310420C0138C3004308CD005D2B031022
:1016B800CD0C3A1C602B612B622BCD170130C20078
:1016C8003D0DBD0CBC0CBB0CBA0CC20B642B01301D
:1016D800C2004208CC07242C3D08803AFF0041088C
:1016E800803A7F02031D822B40083C02031D822B97
:1016F8003F083B02031D822B3E083A020318852B44
:10170800862BDE2BFF30C200FF30C300FF30C40041
:10171800FF30C5003E08C6003F08C7004008C800A3
:101728004108C9003A08C6023B08031C3B0F9D2B21
:101738009E2BC7023C08031C3C0FA32BA42BC802FA
:101748003D08031C3D0FA92BAA2BC9024608C20756
:1017580047080318470FB12BB22BC30748080318D3
:10176800480FB72BB82BC40749080318490AC507FF
:101778004508BD004408BC004308BB004208BA0045
:101788008030C2004208CA06CD09CD0A4D08031DA3
:10179800CE2BCF2BEC2B0130BA07003003180130C9
:1017A800BB07003003180130BC07003003180130B4
:1017B800BD07EC2B3E08BA023F08031C3F0FBB02D3
:1017C8004008031C400FBC024108031C410FBD0226
:1017D8003D083C043B043A04031DF32BF42B202C56
:1017E8004D08031DF82BF92B202C0030BD000030CC
:1017F800BC000030BB000030BA009E2C0130C20093
:101808000310BA0DBB0DBC0DBD0DC20B042CCD1FB2
:101818000E2C0F2C102C3A144D1C132C142C172C96
:101828000314CD0D192C0310CD0D4C0803191D2CD4
:101838001E2C202C0130CC02BC1F232C242C022C63
:10184800CB01CD1F282C292C372C4D087F390319A3
:101858002E2C2F2C322CCB01CB0A372C3A1C352CB2
:10186800362C372C2F2C4B0803193B2C3C2C702C76
:101878000130BA07003003180130BB0700300318E5
:101888000130BC07003003180130BD073D1C4D2C4A
:101898004E2C702C3A08C2003B08C3003C08C40018
:1018A8003D08C5000130C600450DC50CC40CC30C6D
:1018B800C20CC60B582C4508BD004408BC004308A0
:1018C800BB004208BA004C0A03196B2C6C2C702C14
:1018D8000130C2004208CC074C0A0319742C752C3D
:1018E8007A2C4C08031D792C7A2C882C0030BD00EA
:1018F8000030BC000030BB000030BA004C08031DAB
:10190800862C872C882CCA014C1C8B2C8C2C8E2C5A
:10191800BC17922C7F30C2004208BC054C08C2009C
:101928000310420CC3004308BD00CA1F9C2C9D2C09
:101938009E2CBD1708008312031323088039A800C2
:101948002808AD002308A8002807A9002908B30023
:10195800A21FAF2CB02CB12C331433080319B52CAB
:10196800B62CC52C330A031DBA2CBB2CC32C003053
:10197800A3000030A2000030A1000030A000A21790
:10198800CD2C0030A3000030A2000030A1000030B0
:10199800A00027088039A8002808AD062708A80055
:1019A8002807A9002908B200A61FDB2CDC2CDD2C97
:1019B800321432080319E12CE22CF12C320A031DEF
:1019C800E62CE72CEF2C0030A7000030A6000030F2
:1019D800A5000030A400A617F92C0030A70000309D
:1019E800A6000030A5000030A40032080319FD2C21
:1019F800FE2C032D3308031D022D032D0C2D003062
:101A0800A3000030A2000030A1000030A000FF2F8A
:101A18002008A8002808F00026080A168A15D124EC
:101A28000A128A15710883120313B9007008B800E6
:101A38003808A800A901AA01AB012B08B1002A089F
:101A4800B0002908AF002808AE003908A800A9018D
:101A5800AA01AB012B08B7002A08B6002908B5006F
:101A68002808B4002108A8002808F00025080A164C
:101A78008A15D1240A128A15710883120313B90032
:101A88007008B8003808A800A901AA01AB01280805
:101A9800AE07290803110318013E0319542DAF0797
:101AA8002A0803110318013E03195B2DB0072B0800
:101AB80003110318013E0319622DB1073908A80064
:101AC800A901AA01AB012808B407290803110318C2
:101AD800013E0319702DB5072A0803110318013EAA
:101AE8000319772DB6072B0803110318013E0319B4
:101AF8007E2DB7072208A8002808F00024080A1637
:101B08008A15D1240A128A15710883120313B900A1
:101B18007008B8003808A800A901AA01AB01280874
:101B2800AE07290803110318013E03199C2DAF07BE
:101B38002A0803110318013E0319A32DB0072B0827
:101B480003110318013E0319AA2DB1073908A8008B
:101B5800A901AA01AB012808B40729080311031831
:101B6800013E0319B82DB5072A0803110318013ED1
:101B78000319BF2DB6072B0803110318013E0319DB
:101B8800C62DB7070830A8000310AE0DAF0DB00D75
:101B9800B10DA80BC82D2108A8002808F0002408BA
:101BA8000A168A15D1240A128A157108831203139A
:101BB800B9007008B8003808A8003908A900AA01B7
:101BC800AB012808AE07290803110318013E0319C1
:101BD800EE2DAF072A0803110318013E0319F52D4E
:101BE800B0072B0803110318013E0319FC2DB10798
:101BF8002008A8002808F00025080A168A15D1240C
:101C08000A128A15710883120313B9007008B80004
:101C18003808A8003908A900AA01AB012808AE07AE
:101C2800290803110318013E03191B2EAF072A08C0
:101C380003110318013E0319222EB0072B080311C4
:101C48000318013E0319292EB1070830A800031014
:101C5800AE0DAF0DB00DB10DA80B2B2E2008A800AE
:101C68002808F00024080A168A15D1240A128A15B1
:101C7800710883120313B9007008B8003808A80067
:101C88003908A900AA01AB012808AE0729080311E1
:101C98000318013E0319512EAF072A080311031830
:101CA800013E0319582EB0072B0803110318013EF3
:101CB80003195F2EB1072108A8002808F00026089C
:101CC8000A168A15D1240A128A1571088312031379
:101CD800B9007008B8003808A8003908A900AA0196
:101CE800AB012808B407290803110318013E03199A
:101CF8007E2EB5072A0803110318013E0319852E05
:101D0800B6072B0803110318013E03198C2EB707D9
:101D18002208A8002808F00025080A168A15D124E8
:101D28000A128A15710883120313B9007008B800E3
:101D38003808A8003908A900AA01AB012808B40787
:101D4800290803110318013E0319AB2EB5072A0809
:101D580003110318013E0319B22EB6072B0803110D
:101D68000318013E0319B92EB7072208A80028084E
:101D7800F00026080A168A15D1240A128A15710855
:101D880083120313B9007008B8003808A80039088E
:101D9800A900AA01AB0108300310A80DA90DAA0DCE
:101DA800AB0DFF3E031DD02E2808B40729080311E8
:101DB8000318013E0319E12EB5072A080311031879
:101DC800013E0319E82EB6072B0803110318013E3C
:101DD8000319EF2EB7072E08A8002F08A90030080E
:101DE800AA003108AB0018300310AB0CAA0CA90CE0
:101DF800A80CFF3E031DF82E2808B4072908031174
:101E08000318013E0319092FB5072A0803110318FF
:101E1800013E0319102FB6072B0803110318013EC2
:101E28000319172FB7070830A8000310AE0DAF0D20
:101E3800B00DB10DA80B192F33083207A800A9015E
:101E4800A90D2808823EB80029080318013EFF3E64
:101E5800B9004B2F0130A8000310B40DB50DB60D15
:101E6800B70DA80B302FB11F3A2F3B2F3C2F34143E
:101E78000130A8000310AE0DAF0DB00DB10DA80BC9
:101E88003E2FFF30B8070318B90AFF30B907B61F4D
:101E98004E2F4F2F2E2FB201B11F532F542F702FBB
:101EA800FF302E05A800FF302F05A900FF303005B0
:101EB800AA007F303105AB002B082A042904280426
:101EC8000319672F682F6B2FB201B20A702F341CC9
:101ED8006E2F6F2F702F682F32080319742F752FEC
:101EE800A62F0130B407003003180130B5070030C1
:101EF80003180130B607003003180130B707371C44
:101F0800862F872FA62F3408A8003508A900360881
:101F1800AA003708AB000130AC002B0DAB0CAA0CA3
:101F2800A90CA80CAC0B912F2B08B7002A08B600F7
:101F38002908B5002808B4000130B8070318B90A01
:101F48000030B9073908803AFF0080307F02031D4E
:101F5800AF2FFF303802031CB22FB32FBE2F7F30B4
:101F680083120313B7008030B6000030B50000308C
:101F7800B400F32F831203133908803AFF0080302E
:101F88007F02031DC92F013038020318CC2FCD2F33
:101F9800D92F003083120313B7000030B600003089
:101FA800B5000030B400AD01F32F831203133808D5
:101FB800A8002808B300FF30B405FF30B5057F300E
:101FC800B6050030B705331CEA2FEB2FEC2FB617F8
:101FD8003308A8000310280CA9002908B7002D0809
:101FE800A8002808B7043708A3003608A200350857
:081FF800A1003408A00008005C
:102002008316031306178113151716178B1508006D
:1020120083160313871407153F30831203139705A2
:102022001708F0390C3897001D08F0390C389D005C
:10203200FF3083160313920083160317881083124E
:1020420003138510831603170911831203138610D5
:102052008C1C2C282D28292883160313871007117E
:1020620008000310831603171E0D1F0DA000200881
:10207200A6002608031D3E283F28482800309F005E
:1020820000309E0000309D0000309C00AD281C08EE
:10209200A0001D08A1001E08A2001F08A3001F30F7
:1020A2000310A30CA20CA10CA00CFF3E031D51288F
:1020B2002008A4002408A5009E17FF309C05FF30CD
:1020C2009D05FF309E0500309F059630A602A61F93
:1020D2006B286C2886282608803A973E03187228B7
:1020E200732874283F28013003109F0C9E0C9D0C0E
:1020F2009C0CFF3E031D75280130A0002008A60796
:10210200031D8428852874289D2820302602031C5C
:102112008B288C2898283F280130A00003109C0DA2
:102122009D0D9E0D9F0DA00B8F280130A602260843
:10213200031D9C289D288D2825080319A128A22863
:10214200AD289C099D099E099F099C0A03199D0AB5
:1021520003199E0A03199F0A0800F8007808031958
:10216200B328B428C828F31FB728B828C82870098C
:10217200FA007109FB007209FC007309FD00FA0AFA
:102182000319FB0A0319FC0A0319FD0AD028730874
:10219200FD007208FC007108FB007008FA00730869
:1021A200720471047004031DD728D828E128003076
:1021B200F3000030F2000030F1000030F000672937
:1021C2009630F4007408F900F3280130F400740822
:1021D200F90701300310FD0CFC0CFB0CFA0CFF3E5E
:1021E200031DEB28FE307D05031DF828F928E6289B
:1021F20015290130F4007408F9070130FA0700309C
:1022020003180130FB07003003180130FC070030CF
:1022120003180130FD0701300310FD0CFC0CFB0C10
:10222200FA0CFF3E031D0D29FF307D05031D1A29FF
:102232001B29FA2827290130F9020130F400031082
:10224200FA0DFB0DFC0DFD0DF40B2029FC1B2A29B8
:102252002B293129023079020318302931291C290E
:102262007918342935293D29FF30FA05FF30FB055D
:102272007F30FC05FF30FD050310F90C7908F400EE
:10228200F501F601F70118300310F40DF50DF60D06
:10229200F70DFF3E031D45297408FA047508FB0477
:1022A2007608FC047708FD047808031959295A298D
:1022B2005F29F31F5D295E295F29FD177D08F30061
:1022C2007C08F2007B08F1007A08F000080083160F
:1022D2000313B900AF30B1003108B400332A2530FE
:1022E2003A0603197529762982293A08B100390874
:1022F20084003108831780000130B1003108B9072A
:10230200332AB5010130AE07FF302E0784000A12CE
:102312008A150A200A168A11BA00003A0319452AB8
:10232200643A031998290D3A03199829332A340873
:10233200840083130008B700840A0008B800023042
:10234200B1003108B407B81FA729A829B129033061
:10235200B1003108B504B709B809B70A0319B80AB8
:10236200BA01BA0A3A08B1003107013E84000A12E2
:102372008A150A200A168A11B2000A128A150A2040
:102382000A168A11B30033083802031DCA2932081B
:1023920037020318CD29CE29CF29D9290130B1001E
:1023A2003108BA0705303A06031DD829D929B329BD
:1023B200350803390319DE29DF29EA292D30B10056
:1023C200390884003108831780000130B1003108D8
:1023D200B9073A08B1003108B6002A2A0A30A80023
:1023E2000030A9003608B1003107013E84000A120C
:1023F2008A150A200A168A11A0000A128A150A20D2
:102402000A168A11A1003808A3003708A2000A168A
:102412008A15BF250A168A11831603132108AB00F9
:102422002008AA000A168A1583250A168A1183161D
:1024320003132808303EB2003208BA003A08B1004D
:10244200390884003108831780000130B100310857
:10245200B907FF30B1003108B607360A031D322A28
:10246200332AEF290130AE07FF302E0784000A120B
:102472008A150A200A168A11B1003108BA003A08F0
:10248200031D442A452A70293908840083178001D4
:1024920008000A168A15AE240A168A110A168A1527
:1024A2001E240A168A110A168A1101200A168A1196
:1024B2000A168A1553260A168A110B178B170A1643
:1024C2008A1512240A168A110A168A1109200A1676
:1024D2008A11003083160313A400A5000A168A1578
:1024E20071240A168A11831603174A08A80049089C
:1024F200A7006A30B1003108A9006830B200320882
:10250200AA000A168A116A230A168A118316031769
:102512002808BE002708BD00831203136B08831628
:102522000317A800831203136A0883160317A70070
:1025320083120313690883160317AA008312031375
:10254200680883160317A9000A168A11B1250A160C
:102552008A11831603173D083E04031DB12AB22ACD
:10256200B92AF3300A168A153B240A168A11E72A79
:102572002130B100310883160313AE00831603170E
:102582003E0883160313B000831603173D08831613
:102592000313AF00B4300A168A1168210A168A1191
:1025A200B43083160313A4000130A5000A168A155D
:1025B20048250A168A11173083160313A4008030A7
:1025C200A5000A168A1548250A168A1140300A16ED
:1025D2008A154C240A168A110B3083160313A400A1
:1025E2008030A5000A168A1548250A168A1121305C
:1025F20083160317B100310883160313AE0083124A
:1026020003136B0883160313B000831203136A08C3
:1026120083160313AF00B4300A168A1168210A1612
:102622008A11B43083160313A4000130A5000A16E0
:102632008A1548250A168A11113083160313A4003D
:102642008030A5000A168A1548250A168A112130FB
:1026520083160317B100310883160313AE008312E9
:102662000313690883160313B00083120313680867
:1026720083160313AF00B4300A168A1168210A16B2
:102682008A11B43083160313A4000130A5000A1680
:102692008A1548250A168A111D3083160313A400D1
:1026A2008030A5000A168A1548250A168A110630B6
:1026B20083160317B3001330B200AD30B100B10B73
:1026C200602BB20B602BB30B602B742A0A128A1197
:1026D2001028831203138510851C702B712B8F2CED
:1026E20083160317270883160313A60083160317FE
:1026F200280883160313A7000030A71BFF30A80089
:10270200A90001300A128A1123270A168A11831698
:1027120003132908BB002808BA002708B9002608B5
:10272200B8004430B7007F30B600C030B50000308A
:10273200B4000A128A153A200A168A118316031364
:102742003708D5003608D4003508D3003408D20043
:102752004230D100C830D0000030CF000030CE006F
:102762000A128A11C2230A168A1183160313510808
:10277200EF005008EE004F08ED004E08EC003F302D
:10278200EB000030EA000030E9000030E8000A12F5
:102792008A113E200A168A11831603136B088316C8
:1027A20003179F00831603136A08831603179E00FC
:1027B200831603136908831603179D0083160313F8
:1027C2006808831603179C000A168A1132200A161B
:1027D2008A1183160317290884001C0883138000BA
:1027E200840A1D088000290884000008AB00840ABE
:1027F2000008AC006430AD002B082D02AE002C099D
:102802000318013EAF002A0884002E088000840AC3
:102812002F0880000230280627040319112C122CDD
:102822008C2C463083160313BB002F30BA00C830FD
:10283200B9000030B8000630A2000030A3008316B1
:10284200031729088400000883160313A000840AD2
:102852000008A1000A168A15F8240A168A1183169E
:1028620003132008D43E83160317AB008316031309
:1028720021080318013EFE3E83160317AC002B0805
:1028820083160313A600831603172C08831603135B
:10289200A7000030A71BFF30A800A90001300A12D0
:1028A2008A1123270A168A11831603132908B700EF
:1028B2002808B6002708B5002608B4000A128A15AF
:1028C2003A200A168A118316031337088316031750
:1028D2009F00831603133608831603179E00831680
:1028E20003133508831603179D0083160313340858
:1028F200831603179C000A168A1132200A168A11BF
:10290200831603171D08C0001C08BF004008A8005A
:102912003F08A700B02DA701A801B02D8316031709
:102922002709AB002809AC00AB0A0319AC0A2B0833
:1029320083160313A600831603172C0883160313AA
:10294200A7000030A71BFF30A800A90001300A121F
:102952008A1123270A168A11831603132908BB003A
:102962002808BA002708B9002608B8004430B70082
:102972007F30B600C030B5000030B4000A128A15AC
:102982003A200A168A11831603133708D50036082F
:10299200D4003508D3003408D2004230D100C83008
:1029A200D0000030CF000030CE000A128A11C223BC
:1029B2000A168A11831603135108EF005008EE001D
:1029C2004F08ED004E08EC003F30EB000030EA000B
:1029D2000030E9000030E8000A128A113E200A168F
:1029E2008A11831603136B08831603179F0083163D
:1029F20003136A08831603179E00831603136908DC
:102A0200831603179D0083160313680883160317A2
:102A12009C000A168A1132200A168A11831603179D
:102A2200290884001C0883138000840A1D08800082
:102A3200290884000008AB00840A0008AC009C301E
:102A4200AD00FF30AE002B082D02AF002C08031C96
:102A52002C0A2E02B0002A0884002F088000840A63
:102A6200300880000230280627040319392D3A2D38
:102A72008C2CC63083160313BB002F30BA00C8302B
:102A8200B9000030B8000630A2000030A30083165F
:102A9200031729088400000883160313A000840A80
:102AA2000008A1000A168A15F8240A168A1183164C
:102AB20003132008D43E83160317AB0083160313B7
:102AC20021080318013EFE3E83160317AC002B08B3
:102AD20083160313A600831603172C088316031309
:102AE200A7000030A71BFF30A800A90001300A127E
:102AF2008A1123270A168A11831603132908B7009D
:102B02002808B6002708B5002608B4000A128A155C
:102B12003A200A168A1183160313370883160317FD
:102B22009F00831603133608831603179E0083162D
:102B320003133508831603179D0083160313340805
:102B4200831603179C000A168A1132200A168A116C
:102B5200831603171D08C0001C08BF00872C08003D
:102B620083160317280883160313A100831603177D
:102B7200270883160313A0000A168A155E240A1674
:102B82008A1183160313210883160317C4008316C0
:102B92000313200883160317C3002A08831603139E
:102BA200A10083160317290883160313A0000A162F
:102BB2008A155E240A168A118316031321088316C6
:102BC2000317C20083160313200883160317C100DC
:102BD200440883160313A1008316031743088316C0
:102BE2000313A0000A168A155E240A168A11831698
:102BF20003132008A6002108A7000030A71BFF30FE
:102C0200A800A90001300A128A1123270A168A1184
:102C1200831603132908BB002808BA002708B90045
:102C22002608B8004230B700C830B6000030B50000
:102C32000030B4000A128A153A200A168A11831645
:102C420003133708D5003608D4003508D3003408FA
:102C5200D2003930D1005130D000B730CF00173018
:102C6200CE000A128A11C2230A168A11831603138E
:102C7200510883160317B0008316031350088316F6
:102C82000317AF00831603134F0883160317AE0012
:102C9200831603134E0883160317AD0030088316FC
:102CA2000313BB00831603172F0883160313BA00FE
:102CB200831603172E0883160313B900831603170E
:102CC2002D0883160313B8003430B7005630B6000F
:102CD200BF30B5009530B4000A128A153A200A16A0
:102CE2008A11831603133708EF003608EE00350801
:102CF200ED003408EC003F30EB000030EA00003019
:102D0200E9000030E8000A128A113E200A168A11F0
:102D1200831603136B08831603179F00831603138E
:102D22006A08831603179E00831603136908831625
:102D320003179D00831603136808831603179C006C
:102D42000A168A1132200A168A11831603171D08E1
:102D5200C8001C08C700420883160313A10083168B
:102D62000317410883160313A0000A168A155E246E
:102D72000A168A11831603132008A6002108A70049
:102D82000030A71BFF30A800A90001300A128A11E7
:102D920023270A168A11831603132908BB00280861
:102DA200BA002708B9002608B8004230B700C83078
:102DB200B6000030B5000030B4000A128A153A207D
:102DC2000A168A11831603133708D5003608D40071
:102DD2003508D3003408D2003930D1005130D00048
:102DE200B730CF001730CE000A128A11C2230A165A
:102DF2008A1183160313510883160317B000831632
:102E02000313500883160317AF00831603134F08EA
:102E120083160317AE00831603134E088316031797
:102E2200AD00300883160313BB00831603172F0867
:102E320083160313BA00831603172E08831603138F
:102E4200B900831603172D0883160313B800343014
:102E5200B7005630B600BF30B5009530B4000A1244
:102E62008A153A200A168A11831603133708EF00CF
:102E72003608EE003508ED003408EC003F30EB0078
:102E82000030EA000030E9000030E8000A128A113E
:102E92003E200A168A11831603136B088316031742
:102EA2009F00831603136A08831603179E00831676
:102EB20003136908831603179D008316031368081A
:102EC200831603179C000A168A1132200A168A11E9
:102ED200831603171D08C6001C08C5004808AC006D
:102EE2004708AB000310AC0CAB0C0310AC0CAB0CE2
:102EF2002B0883120313950083160317470803391F
:102F0200AB00AB0E831203131708831603172B06AD
:102F1200CF392B0683120313970083160317460833
:102F2200AC004508AB000310AC0CAB0C0310AC0CAE
:102F3200AB0C2B08831203139B008316031746085E
:102F4200AC004508AB000310AC0CAB0C2B18AA2F3D
:102F5200AE2F831203139D16B12F831203139D12FA
:102F6200831603174518B62FBA2F831203131D16A3
:102F7200BD2F831203131D1283160317280883160D
:102F82000313A10083160317270883160313A00057
:102F9200831603172A0883160313A3008316031745
:102FA200290883160313A2000A168A15F8240A16A2
:102FB2008A11831603132108803AFF0080307F02B2
:102FC200031DE52F01302002031CE82FE92FFF2FFC
:102FD200831603172808803AFF0080307F02031D02
:102FE200F42F01302702031CF72FF82FFC2F831236
:0E2FF20003138610FF2F8312031386140800AA
:103814008312031305110800831203138511080092
:10382400831203138C101208FC390138920012150C
:10383400831603138C140800831603138112811159
:1038440081128111073081049D308312031381009A
:103854008B160800831203136F1C312C322C382C66
:103864006F100130F0000030F1003A2CF001F1014A
:10387400080083160313A4000A128A1536200A16B8
:103884008A158316031324080A128A11DF270A16DD
:103894008A15080083160313A4000A168A150A243D
:1038A4000A168A15831603132408803E0A128A1105
:1038B400DF270A168A15080083160313A11F632C39
:1038C400642C702C2009A2002109A300A20A031968
:1038D400A30A2208A0002308A100702C08000A16DD
:1038E4008A150A240A168A15831603132408250444
:1038F40003197D2C7E2C852C0F300A128A11DF27A8
:103904000A168A158B2C0C300A128A11DF270A1624
:103914008A150800F2007208F00006300310F00C5B
:10392400FF3E031D902C70080139F1007108F3006B
:103934007308031D9E2C9F2CA72C831203136C0366
:10394400031DA52CA62CA72C6F147308F000700877
:1039540083120313EC000800831603130514831663
:1039640003170814831203139F17831603139F125C
:103974001F12C330831203139F05831603139F176B
:10398400831203131F14413083160313A100ED3077
:10399400A000A00BCB2CA10BCB2CD02C0800F80042
:1039A400F401F5017008F200F3017208F6007308DF
:1039B400F700781CDE2CDF2CE52C7608F4070318BE
:1039C400F50A7708F50701300310F60DF70DFF3EF1
:1039D400031DE62C0310F80C7808031DF22CF32CBD
:1039E400DB2C7508F1007408F0000800831603133B
:1039F400A401A501201CFF2C002D062D2208A407DC
:103A04000318A50A2308A50701300310A20DA30D6E
:103A1400FF3E031D072D01300310A10CA00CFF3E37
:103A2400031D0E2D20082104031D192D1A2DFC2C15
:103A34002508A1002408A000080083160313A80089
:103A4400A401A5012008A200A3012208A6002308BE
:103A5400A700281C2E2D2F2D352D2608A40703186A
:103A6400A50A2708A50701300310A60DA70DFF3EE0
:103A7400031D362D0310A80C2808031D422D432DC9
:103A84002B2D2508A1002408A00008000A128A157D
:103A940036200A168A156C2D831603132508831203
:103AA4000313FF00831603132408840083120313F3
:103AB4000A128A1500200A168A150A128A11DF27AB
:103AC4000A168A15013083160313A4070318A50ADE
:103AD4000030A50783160313250883120313FF0080
:103AE4008316031324088400831203130A128A150D
:103AF40000200A168A15003A031D812D822D4E2DB1
:103B04000800831603132808290403198A2D8B2D12
:103B1400BA2DAD01AD0A992D01300310A80DA90DE0
:103B2400FF3E031D8F2D0130AC002C08AD07A91FEB
:103B34009C2D9D2D8E2D29082B02031DA32D2808B5
:103B44002A02031CA62DA72DAD2D2808AA02290898
:103B5400031CAB03AB0201300310A90CA80CFF3EFD
:103B6400031DAE2D0130AD02031DB92DBA2D9D2DBF
:103B74002B08A9002A08A800080083160313A5012E
:103B8400A601200821040319C82DC92D002EA70160
:103B9400A70AD72D01300310A00DA10DFF3E031D70
:103BA400CD2D0130A4002408A707A11FDA2DDB2D99
:103BB400CC2D01300310A50DA60DFF3E031DDC2DF9
:103BC40021082302031DE82D20082202031CEB2DEB
:103BD400EC2DF32D2008A2022108031CA303A30249
:103BE400251401300310A10CA00CFF3E031DF42D7D
:103BF4000130A702031DFF2D002EDB2D2608A10096
:103C04002508A000080083160313A10021180B2E19
:103C14000F2E831203130714122E8312031307109B
:103C2400831603132108A00001300310A00CFF3EEB
:103C3400031D172E20181F2E232E831203138715FE
:103C4400262E831203138711831603132108A00061
:103C540002300310A00CFF3E031D2B2E2018332E20
:103C6400372E8312031307163A2E831203130712F7
:103C7400831603132108A00003300310A00CFF3E99
:103C8400031D3F2E2018472E4B2E83120313871635
:103C94004E2E8312031387120614061406140610FC
:103CA40008008316031306108316031709128316DC
:103CB4000313851183160317881183160313051143
:103CC400831603170811C63083160313A4002408AF
:103CD40087058312031306100A168A150E240A1682
:103CE4008A150A168A150A240A168A15623083165A
:103CF4000313A5006530A400A40B7E2EA50B7E2E15
:103D040002300A128A11DF270A168A150D3083162B
:103D14000313A500FB30A400A40B8E2EA50B8E2E3E
:103D240028300A128A11DF270A168A1508300A1267
:103D34008A11DF270A168A150F300A128A11DF2723
:103D44000A168A1506300A128A11DF270A168A15FE
:103D540008008B1EAE2EAF2EC92E0B1DB22EB32E15
:103D6400C92E0A168A1509270A168A1583120313FF
:103D74005A0883160317CA008312031359088316BB
:103D84000317C9009D308312031381000B1183169E
:103D940003138C1CCE2ECF2EEE2E831203138C1CF9
:103DA400D42ED52EEE2E0A168A152C240A168A1520
:103DB400700871040319DF2EE02EE72E831203131B
:103DC400EA09EB09EA0A0319EB0A83120313E80967
:103DD400E909E80A0319E90A8B1DF12EF22EFE2ED9
:103DE4000B1CF52EF62EFE2E831206080A168A15D3
:103DF4008C240A168A150B10831203136708FF001C
:103E040066088A00650E8300FE0E7E0E090083128A
:103E140003139F149F180F2F102F0C2F1E08DB0065
:103E2400DC01DD01DE015E08F3005D08F2005C08E0
:103E3400F1005B08F00000300A168A11AE200A1661
:103E44008A15730883120313A7007208A600710869
:103E5400A5007008A4004330A3008030A200003005
:103E6400A1000030A0000A128A159F240A168A15A0
:103E7400831203132308C1002208C0002108BF00D5
:103E84002008BE00831603131E0883120313DF00E9
:103E9400E001E101E2016208F3006108F200600858
:103EA400F1005F08F00000300A168A11AE200A16ED
:103EB4008A15730883120313BD007208BC007108CD
:103EC400BB007008BA000A128A1517220A168A154E
:103ED400831203133D08D1003C08D0003B08CF00F7
:103EE4003A08CE000A168A1584270A168A15831200
:103EF40003134F08E4004E08E3006408DA00630883
:103F0400D9000800031083120313500D510DD20081
:103F14005208D8005808031D902F912F9A2F003073
:103F2400D1000030D0000030CF000030CE00FF2F91
:103F34004E08D2004F08D3005008D4005108D500D1
:103F44001F300310D50CD40CD30CD20CFF3E031D30
:103F5400A32F5208D6005608D700D017FF30CE053D
:103F6400FF30CF05FF30D0050030D1059630D802A0
:103F7400D81FBD2FBE2FD82F5808803A973E03185C
:103F8400C42FC52FC62F912F01300310D10CD00C94
:103F9400CF0CCE0CFF3E031DC72F0130D2005208B8
:103FA400D807031DD62FD72FC62FEF2F2030580246
:103FB400031CDD2FDE2FEA2F912F0130D2000310D6
:103FC400CE0DCF0DD00DD10DD20BE12F0130D80283
:103FD4005808031DEE2FEF2FDF2F57080319F32F77
:103FE400F42FFF2FCE09CF09D009D109CE0A031926
:0C3FF400CF0A0319D00A0319D10A0800F3
:04400E00F3EFFFFFCE
:00000001FF
